{
  "_format": "hh-sol-artifact-1",
  "contractName": "NFTMarketplace",
  "sourceName": "contracts/NFTMarketplace.sol",
  "abi": [
    {
      "inputs": [],
      "stateMutability": "nonpayable",
      "type": "constructor"
    },
    {
      "inputs": [],
      "name": "ReentrancyGuardReentrantCall",
      "type": "error"
    },
    {
      "inputs": [
        {
          "internalType": "uint256",
          "name": "_tokenId",
          "type": "uint256"
        },
        {
          "internalType": "address",
          "name": "nftContract",
          "type": "address"
        }
      ],
      "name": "createMarketItem",
      "outputs": [
        {
          "internalType": "uint256",
          "name": "",
          "type": "uint256"
        }
      ],
      "stateMutability": "nonpayable",
      "type": "function"
    },
    {
      "inputs": [],
      "name": "fetchAllItemsOfOwner",
      "outputs": [
        {
          "components": [
            {
              "internalType": "uint256",
              "name": "itemId",
              "type": "uint256"
            },
            {
              "internalType": "uint256",
              "name": "tokenId",
              "type": "uint256"
            },
            {
              "internalType": "address",
              "name": "nftContract",
              "type": "address"
            },
            {
              "internalType": "address payable",
              "name": "owner",
              "type": "address"
            },
            {
              "internalType": "address",
              "name": "lastSeller",
              "type": "address"
            },
            {
              "internalType": "address[]",
              "name": "prevOwners",
              "type": "address[]"
            },
            {
              "internalType": "uint256",
              "name": "price",
              "type": "uint256"
            },
            {
              "internalType": "uint256",
              "name": "lastPrice",
              "type": "uint256"
            },
            {
              "internalType": "bool",
              "name": "onSale",
              "type": "bool"
            }
          ],
          "internalType": "struct NFTMarketplace.MarketItem[]",
          "name": "",
          "type": "tuple[]"
        }
      ],
      "stateMutability": "view",
      "type": "function"
    },
    {
      "inputs": [],
      "name": "fetchAllItemsOnSale",
      "outputs": [
        {
          "components": [
            {
              "internalType": "uint256",
              "name": "itemId",
              "type": "uint256"
            },
            {
              "internalType": "uint256",
              "name": "tokenId",
              "type": "uint256"
            },
            {
              "internalType": "address",
              "name": "nftContract",
              "type": "address"
            },
            {
              "internalType": "address payable",
              "name": "owner",
              "type": "address"
            },
            {
              "internalType": "address",
              "name": "lastSeller",
              "type": "address"
            },
            {
              "internalType": "address[]",
              "name": "prevOwners",
              "type": "address[]"
            },
            {
              "internalType": "uint256",
              "name": "price",
              "type": "uint256"
            },
            {
              "internalType": "uint256",
              "name": "lastPrice",
              "type": "uint256"
            },
            {
              "internalType": "bool",
              "name": "onSale",
              "type": "bool"
            }
          ],
          "internalType": "struct NFTMarketplace.MarketItem[]",
          "name": "",
          "type": "tuple[]"
        }
      ],
      "stateMutability": "view",
      "type": "function"
    },
    {
      "inputs": [
        {
          "internalType": "uint256",
          "name": "_itemId",
          "type": "uint256"
        },
        {
          "internalType": "address",
          "name": "_nftContract",
          "type": "address"
        },
        {
          "internalType": "uint256",
          "name": "_price",
          "type": "uint256"
        }
      ],
      "name": "listItemOnSale",
      "outputs": [],
      "stateMutability": "payable",
      "type": "function"
    },
    {
      "inputs": [
        {
          "internalType": "address",
          "name": "operator",
          "type": "address"
        },
        {
          "internalType": "address",
          "name": "from",
          "type": "address"
        },
        {
          "internalType": "uint256",
          "name": "tokenId",
          "type": "uint256"
        },
        {
          "internalType": "bytes",
          "name": "data",
          "type": "bytes"
        }
      ],
      "name": "onERC721Received",
      "outputs": [
        {
          "internalType": "bytes4",
          "name": "",
          "type": "bytes4"
        }
      ],
      "stateMutability": "pure",
      "type": "function"
    },
    {
      "inputs": [
        {
          "internalType": "uint256",
          "name": "_itemId",
          "type": "uint256"
        },
        {
          "internalType": "address",
          "name": "_nftContract",
          "type": "address"
        }
      ],
      "name": "sellMarketItem",
      "outputs": [],
      "stateMutability": "payable",
      "type": "function"
    }
  ],
  "bytecode": "0x60806040526658d15e1762800060035534801561001b57600080fd5b50600160008190555033600260006101000a81548173ffffffffffffffffffffffffffffffffffffffff021916908373ffffffffffffffffffffffffffffffffffffffff160217905550611c20806100746000396000f3fe6080604052600436106100555760003560e01c806309d2fb361461005a578063150b7a02146100855780633e339590146100c25780635f5e637f146100ff578063b161500c1461011b578063d8ad0cc714610137575b600080fd5b34801561006657600080fd5b5061006f610162565b60405161007c9190611590565b60405180910390f35b34801561009157600080fd5b506100ac60048036038101906100a79190611679565b610503565b6040516100b9919061173c565b60405180910390f35b3480156100ce57600080fd5b506100e960048036038101906100e49190611757565b610518565b6040516100f691906117a6565b60405180910390f35b61011960048036038101906101149190611757565b610806565b005b610135600480360381019061013091906117c1565b610b96565b005b34801561014357600080fd5b5061014c610e10565b6040516101599190611590565b60405180910390f35b6060600060015490506000805b82811015610202573373ffffffffffffffffffffffffffffffffffffffff166004600083815260200190815260200160002060030160009054906101000a900473ffffffffffffffffffffffffffffffffffffffff1673ffffffffffffffffffffffffffffffffffffffff16036101ef5781806101eb90611843565b9250505b80806101fa90611843565b91505061016f565b5060008167ffffffffffffffff81111561021f5761021e61188b565b5b60405190808252806020026020018201604052801561025857816020015b61024561118d565b81526020019060019003908161023d5790505b50905060005b838110156104f9573373ffffffffffffffffffffffffffffffffffffffff166004600083815260200190815260200160002060030160009054906101000a900473ffffffffffffffffffffffffffffffffffffffff1673ffffffffffffffffffffffffffffffffffffffff16036104e6576000600460008381526020019081526020016000209050806040518061012001604052908160008201548152602001600182015481526020016002820160009054906101000a900473ffffffffffffffffffffffffffffffffffffffff1673ffffffffffffffffffffffffffffffffffffffff1673ffffffffffffffffffffffffffffffffffffffff1681526020016003820160009054906101000a900473ffffffffffffffffffffffffffffffffffffffff1673ffffffffffffffffffffffffffffffffffffffff1673ffffffffffffffffffffffffffffffffffffffff1681526020016004820160009054906101000a900473ffffffffffffffffffffffffffffffffffffffff1673ffffffffffffffffffffffffffffffffffffffff1673ffffffffffffffffffffffffffffffffffffffff1681526020016005820180548060200260200160405190810160405280929190818152602001828054801561048e57602002820191906000526020600020905b8160009054906101000a900473ffffffffffffffffffffffffffffffffffffffff1673ffffffffffffffffffffffffffffffffffffffff1681526020019060010190808311610444575b5050505050815260200160068201548152602001600782015481526020016008820160009054906101000a900460ff1615151515815250508383815181106104d9576104d86118ba565b5b6020026020010181905250505b80806104f190611843565b91505061025e565b5080935050505090565b600063150b7a0260e01b905095945050505050565b60003373ffffffffffffffffffffffffffffffffffffffff168273ffffffffffffffffffffffffffffffffffffffff16636352211e856040518263ffffffff1660e01b815260040161056a91906117a6565b602060405180830381865afa158015610587573d6000803e3d6000fd5b505050506040513d601f19601f820116820180604052508101906105ab91906118fe565b73ffffffffffffffffffffffffffffffffffffffff1614610601576040517f08c379a00000000000000000000000000000000000000000000000000000000081526004016105f890611988565b60405180910390fd5b6001600081548092919061061490611843565b91905055506000600154905060606040518061012001604052808381526020018681526020018573ffffffffffffffffffffffffffffffffffffffff1681526020013373ffffffffffffffffffffffffffffffffffffffff168152602001600073ffffffffffffffffffffffffffffffffffffffff16815260200182815260200160008152602001600081526020016000151581525060046000848152602001908152602001600020600082015181600001556020820151816001015560408201518160020160006101000a81548173ffffffffffffffffffffffffffffffffffffffff021916908373ffffffffffffffffffffffffffffffffffffffff16021790555060608201518160030160006101000a81548173ffffffffffffffffffffffffffffffffffffffff021916908373ffffffffffffffffffffffffffffffffffffffff16021790555060808201518160040160006101000a81548173ffffffffffffffffffffffffffffffffffffffff021916908373ffffffffffffffffffffffffffffffffffffffff16021790555060a08201518160050190805190602001906107c292919061121d565b5060c0820151816006015560e082015181600701556101008201518160080160006101000a81548160ff021916908315150217905550905050819250505092915050565b61080e61113d565b60046000838152602001908152602001600020600601543414610866576040517f08c379a000000000000000000000000000000000000000000000000000000000815260040161085d906119f4565b60405180910390fd5b6004600083815260200190815260200160002060030160009054906101000a900473ffffffffffffffffffffffffffffffffffffffff1673ffffffffffffffffffffffffffffffffffffffff163373ffffffffffffffffffffffffffffffffffffffff160361090a576040517f08c379a000000000000000000000000000000000000000000000000000000000815260040161090190611a60565b60405180910390fd5b8073ffffffffffffffffffffffffffffffffffffffff166342842e0e303360046000878152602001908152602001600020600101546040518463ffffffff1660e01b815260040161095d93929190611a8f565b600060405180830381600087803b15801561097757600080fd5b505af115801561098b573d6000803e3d6000fd5b505050506004600083815260200190815260200160002060030160009054906101000a900473ffffffffffffffffffffffffffffffffffffffff1673ffffffffffffffffffffffffffffffffffffffff166108fc349081150290604051600060405180830381858888f19350505050158015610a0b573d6000803e3d6000fd5b50600460008381526020019081526020016000206005016004600084815260200190815260200160002060030160009054906101000a900473ffffffffffffffffffffffffffffffffffffffff169080600181540180825580915050600190039060005260206000200160009091909190916101000a81548173ffffffffffffffffffffffffffffffffffffffff021916908373ffffffffffffffffffffffffffffffffffffffff160217905550336004600084815260200190815260200160002060030160006101000a81548173ffffffffffffffffffffffffffffffffffffffff021916908373ffffffffffffffffffffffffffffffffffffffff160217905550600460008381526020019081526020016000206006015460046000848152602001908152602001600020600701819055506000600460008481526020019081526020016000206006018190555060006004600084815260200190815260200160002060080160006101000a81548160ff021916908315150217905550610b92611183565b5050565b3373ffffffffffffffffffffffffffffffffffffffff166004600085815260200190815260200160002060030160009054906101000a900473ffffffffffffffffffffffffffffffffffffffff1673ffffffffffffffffffffffffffffffffffffffff1614610c3a576040517f08c379a0000000000000000000000000000000000000000000000000000000008152600401610c3190611b38565b60405180910390fd5b6003543403610c7e576040517f08c379a0000000000000000000000000000000000000000000000000000000008152600401610c7590611bca565b60405180910390fd5b8173ffffffffffffffffffffffffffffffffffffffff166342842e0e333060046000888152602001908152602001600020600101546040518463ffffffff1660e01b8152600401610cd193929190611a8f565b600060405180830381600087803b158015610ceb57600080fd5b505af1158015610cff573d6000803e3d6000fd5b50505050600260009054906101000a900473ffffffffffffffffffffffffffffffffffffffff1673ffffffffffffffffffffffffffffffffffffffff166108fc349081150290604051600060405180830381858888f19350505050158015610d6b573d6000803e3d6000fd5b5060016004600085815260200190815260200160002060080160006101000a81548160ff021916908315150217905550336004600085815260200190815260200160002060040160006101000a81548173ffffffffffffffffffffffffffffffffffffffff021916908373ffffffffffffffffffffffffffffffffffffffff160217905550806004600085815260200190815260200160002060060181905550505050565b6060600060015490506000805b82811015610e7657600115156004600083815260200190815260200160002060080160009054906101000a900460ff16151503610e63578180610e5f90611843565b9250505b8080610e6e90611843565b915050610e1d565b5060008167ffffffffffffffff811115610e9357610e9261188b565b5b604051908082528060200260200182016040528015610ecc57816020015b610eb961118d565b815260200190600190039081610eb15790505b50905060005b8381101561113357600115156004600083815260200190815260200160002060080160009054906101000a900460ff16151503611120576000600460008381526020019081526020016000209050806040518061012001604052908160008201548152602001600182015481526020016002820160009054906101000a900473ffffffffffffffffffffffffffffffffffffffff1673ffffffffffffffffffffffffffffffffffffffff1673ffffffffffffffffffffffffffffffffffffffff1681526020016003820160009054906101000a900473ffffffffffffffffffffffffffffffffffffffff1673ffffffffffffffffffffffffffffffffffffffff1673ffffffffffffffffffffffffffffffffffffffff1681526020016004820160009054906101000a900473ffffffffffffffffffffffffffffffffffffffff1673ffffffffffffffffffffffffffffffffffffffff1673ffffffffffffffffffffffffffffffffffffffff168152602001600582018054806020026020016040519081016040528092919081815260200182805480156110c857602002820191906000526020600020905b8160009054906101000a900473ffffffffffffffffffffffffffffffffffffffff1673ffffffffffffffffffffffffffffffffffffffff168152602001906001019080831161107e575b5050505050815260200160068201548152602001600782015481526020016008820160009054906101000a900460ff161515151581525050838381518110611113576111126118ba565b5b6020026020010181905250505b808061112b90611843565b915050610ed2565b5080935050505090565b600260005403611179576040517f3ee5aeb500000000000000000000000000000000000000000000000000000000815260040160405180910390fd5b6002600081905550565b6001600081905550565b6040518061012001604052806000815260200160008152602001600073ffffffffffffffffffffffffffffffffffffffff168152602001600073ffffffffffffffffffffffffffffffffffffffff168152602001600073ffffffffffffffffffffffffffffffffffffffff1681526020016060815260200160008152602001600081526020016000151581525090565b828054828255906000526020600020908101928215611296579160200282015b828111156112955782518260006101000a81548173ffffffffffffffffffffffffffffffffffffffff021916908373ffffffffffffffffffffffffffffffffffffffff1602179055509160200191906001019061123d565b5b5090506112a391906112a7565b5090565b5b808211156112c05760008160009055506001016112a8565b5090565b600081519050919050565b600082825260208201905092915050565b6000819050602082019050919050565b6000819050919050565b611303816112f0565b82525050565b600073ffffffffffffffffffffffffffffffffffffffff82169050919050565b600061133482611309565b9050919050565b61134481611329565b82525050565b600061135582611309565b9050919050565b6113658161134a565b82525050565b600081519050919050565b600082825260208201905092915050565b6000819050602082019050919050565b60006113a3838361133b565b60208301905092915050565b6000602082019050919050565b60006113c78261136b565b6113d18185611376565b93506113dc83611387565b8060005b8381101561140d5781516113f48882611397565b97506113ff836113af565b9250506001810190506113e0565b5085935050505092915050565b60008115159050919050565b61142f8161141a565b82525050565b60006101208301600083015161144e60008601826112fa565b50602083015161146160208601826112fa565b506040830151611474604086018261133b565b506060830151611487606086018261135c565b50608083015161149a608086018261133b565b5060a083015184820360a08601526114b282826113bc565b91505060c08301516114c760c08601826112fa565b5060e08301516114da60e08601826112fa565b506101008301516114ef610100860182611426565b508091505092915050565b60006115068383611435565b905092915050565b6000602082019050919050565b6000611526826112c4565b61153081856112cf565b935083602082028501611542856112e0565b8060005b8581101561157e578484038952815161155f85826114fa565b945061156a8361150e565b925060208a01995050600181019050611546565b50829750879550505050505092915050565b600060208201905081810360008301526115aa818461151b565b905092915050565b600080fd5b600080fd5b6115c581611329565b81146115d057600080fd5b50565b6000813590506115e2816115bc565b92915050565b6115f1816112f0565b81146115fc57600080fd5b50565b60008135905061160e816115e8565b92915050565b600080fd5b600080fd5b600080fd5b60008083601f84011261163957611638611614565b5b8235905067ffffffffffffffff81111561165657611655611619565b5b6020830191508360018202830111156116725761167161161e565b5b9250929050565b600080600080600060808688031215611695576116946115b2565b5b60006116a3888289016115d3565b95505060206116b4888289016115d3565b94505060406116c5888289016115ff565b935050606086013567ffffffffffffffff8111156116e6576116e56115b7565b5b6116f288828901611623565b92509250509295509295909350565b60007fffffffff0000000000000000000000000000000000000000000000000000000082169050919050565b61173681611701565b82525050565b6000602082019050611751600083018461172d565b92915050565b6000806040838503121561176e5761176d6115b2565b5b600061177c858286016115ff565b925050602061178d858286016115d3565b9150509250929050565b6117a0816112f0565b82525050565b60006020820190506117bb6000830184611797565b92915050565b6000806000606084860312156117da576117d96115b2565b5b60006117e8868287016115ff565b93505060206117f9868287016115d3565b925050604061180a868287016115ff565b9150509250925092565b7f4e487b7100000000000000000000000000000000000000000000000000000000600052601160045260246000fd5b600061184e826112f0565b91507fffffffffffffffffffffffffffffffffffffffffffffffffffffffffffffffff82036118805761187f611814565b5b600182019050919050565b7f4e487b7100000000000000000000000000000000000000000000000000000000600052604160045260246000fd5b7f4e487b7100000000000000000000000000000000000000000000000000000000600052603260045260246000fd5b6000815190506118f8816115bc565b92915050565b600060208284031215611914576119136115b2565b5b6000611922848285016118e9565b91505092915050565b600082825260208201905092915050565b7f596f7520646f206e6f74206f776e2074686973204e4654000000000000000000600082015250565b600061197260178361192b565b915061197d8261193c565b602082019050919050565b600060208201905081810360008301526119a181611965565b9050919050565b7f416d6f756e74206d75737420626520657175616c20746f207072696365000000600082015250565b60006119de601d8361192b565b91506119e9826119a8565b602082019050919050565b60006020820190508181036000830152611a0d816119d1565b9050919050565b7f4f776e65722073686f756c64206e6f7420627579207468656972204e46547300600082015250565b6000611a4a601f8361192b565b9150611a5582611a14565b602082019050919050565b60006020820190508181036000830152611a7981611a3d565b9050919050565b611a8981611329565b82525050565b6000606082019050611aa46000830186611a80565b611ab16020830185611a80565b611abe6040830184611797565b949350505050565b7f6f6e6c79206f776e65722063616e207075742074686973206974656d206f6e2060008201527f73616c6500000000000000000000000000000000000000000000000000000000602082015250565b6000611b2260248361192b565b9150611b2d82611ac6565b604082019050919050565b60006020820190508181036000830152611b5181611b15565b9050919050565b7f416d6f756e7420646f65736e2774206d656574206c697374696e67206665657360008201527f20726571756972656d656e747320282e30303235657468290000000000000000602082015250565b6000611bb460388361192b565b9150611bbf82611b58565b604082019050919050565b60006020820190508181036000830152611be381611ba7565b905091905056fea264697066735822122027af6992771f8309ad226591ecf400c45d457ab5466926c6d44830c8f39b678e64736f6c63430008140033",
  "linkReferences": {},
  "deployedLinkReferences": {}
}